{
  "_format": "hh-sol-artifact-1",
  "contractName": "TaskContract",
  "sourceName": "contracts/TaskContract.sol",
  "abi": [
    {
      "anonymous": false,
      "inputs": [
        {
          "indexed": false,
          "internalType": "address",
          "name": "recipient",
          "type": "address"
        },
        {
          "indexed": false,
          "internalType": "uint256",
          "name": "taskId",
          "type": "uint256"
        },
        {
          "indexed": false,
          "internalType": "string",
          "name": "taskText",
          "type": "string"
        }
      ],
      "name": "TaskCreated",
      "type": "event"
    },
    {
      "anonymous": false,
      "inputs": [
        {
          "indexed": false,
          "internalType": "uint256",
          "name": "taskId",
          "type": "uint256"
        },
        {
          "indexed": false,
          "internalType": "bool",
          "name": "isDeleted",
          "type": "bool"
        }
      ],
      "name": "TaskDeleted",
      "type": "event"
    },
    {
      "inputs": [
        {
          "internalType": "string",
          "name": "_taskText",
          "type": "string"
        },
        {
          "internalType": "bool",
          "name": "isDeleted",
          "type": "bool"
        }
      ],
      "name": "createTask",
      "outputs": [],
      "stateMutability": "nonpayable",
      "type": "function"
    },
    {
      "inputs": [],
      "name": "getMyTasks",
      "outputs": [
        {
          "components": [
            {
              "internalType": "uint256",
              "name": "id",
              "type": "uint256"
            },
            {
              "internalType": "string",
              "name": "taskText",
              "type": "string"
            },
            {
              "internalType": "bool",
              "name": "isDeleted",
              "type": "bool"
            }
          ],
          "internalType": "struct TaskContract.Task[]",
          "name": "",
          "type": "tuple[]"
        }
      ],
      "stateMutability": "view",
      "type": "function"
    }
  ],
  "bytecode": "0x608060405234801561001057600080fd5b50610d75806100206000396000f3fe608060405234801561001057600080fd5b50600436106100365760003560e01c806316f704301461003b5780636e13f81814610057575b600080fd5b610055600480360381019061005091906106ac565b610075565b005b61005f61019a565b60405161006c91906108c1565b60405180910390f35b6000808054905090506000604051806060016040528083815260200185815260200184151581525090806001815401808255809150506001900390600052602060002090600302016000909190919091506000820151816000015560208201518160010190816100e59190610aef565b5060408201518160020160006101000a81548160ff0219169083151502179055505050336001600083815260200190815260200160002060006101000a81548173ffffffffffffffffffffffffffffffffffffffff021916908373ffffffffffffffffffffffffffffffffffffffff1602179055507fa211005f5319202ee7ab6815fc340564635fb1eee9bc5a55aa10048c5b471dc433828560405161018d93929190610c5b565b60405180910390a1505050565b60606000805b600080549050811015610296573373ffffffffffffffffffffffffffffffffffffffff16600160008084815481106101db576101da610c99565b5b906000526020600020906003020160000154815260200190815260200160002060009054906101000a900473ffffffffffffffffffffffffffffffffffffffff1673ffffffffffffffffffffffffffffffffffffffff161480156102755750600015156000828154811061025257610251610c99565b5b906000526020600020906003020160020160009054906101000a900460ff161515145b1561028957818061028590610cf7565b9250505b80806001019150506101a0565b5060008167ffffffffffffffff8111156102b3576102b2610549565b5b6040519080825280602002602001820160405280156102ec57816020015b6102d96104f7565b8152602001906001900390816102d15790505b5090506000915060005b6000805490508110156104ee573373ffffffffffffffffffffffffffffffffffffffff166001600080848154811061033157610330610c99565b5b906000526020600020906003020160000154815260200190815260200160002060009054906101000a900473ffffffffffffffffffffffffffffffffffffffff1673ffffffffffffffffffffffffffffffffffffffff161480156103cb575060001515600082815481106103a8576103a7610c99565b5b906000526020600020906003020160020160009054906101000a900460ff161515145b156104e157600081815481106103e4576103e3610c99565b5b90600052602060002090600302016040518060600160405290816000820154815260200160018201805461041790610912565b80601f016020809104026020016040519081016040528092919081815260200182805461044390610912565b80156104905780601f1061046557610100808354040283529160200191610490565b820191906000526020600020905b81548152906001019060200180831161047357829003601f168201915b505050505081526020016002820160009054906101000a900460ff1615151515815250508284815181106104c7576104c6610c99565b5b602002602001018190525082806104dd90610cf7565b9350505b80806001019150506102f6565b50809250505090565b604051806060016040528060008152602001606081526020016000151581525090565b6000604051905090565b600080fd5b600080fd5b600080fd5b600080fd5b6000601f19601f8301169050919050565b7f4e487b7100000000000000000000000000000000000000000000000000000000600052604160045260246000fd5b61058182610538565b810181811067ffffffffffffffff821117156105a05761059f610549565b5b80604052505050565b60006105b361051a565b90506105bf8282610578565b919050565b600067ffffffffffffffff8211156105df576105de610549565b5b6105e882610538565b9050602081019050919050565b82818337600083830152505050565b6000610617610612846105c4565b6105a9565b90508281526020810184848401111561063357610632610533565b5b61063e8482856105f5565b509392505050565b600082601f83011261065b5761065a61052e565b5b813561066b848260208601610604565b91505092915050565b60008115159050919050565b61068981610674565b811461069457600080fd5b50565b6000813590506106a681610680565b92915050565b600080604083850312156106c3576106c2610524565b5b600083013567ffffffffffffffff8111156106e1576106e0610529565b5b6106ed85828601610646565b92505060206106fe85828601610697565b9150509250929050565b600081519050919050565b600082825260208201905092915050565b6000819050602082019050919050565b6000819050919050565b61074781610734565b82525050565b600081519050919050565b600082825260208201905092915050565b60005b8381101561078757808201518184015260208101905061076c565b60008484015250505050565b600061079e8261074d565b6107a88185610758565b93506107b8818560208601610769565b6107c181610538565b840191505092915050565b6107d581610674565b82525050565b60006060830160008301516107f3600086018261073e565b506020830151848203602086015261080b8282610793565b915050604083015161082060408601826107cc565b508091505092915050565b600061083783836107db565b905092915050565b6000602082019050919050565b600061085782610708565b6108618185610713565b93508360208202850161087385610724565b8060005b858110156108af5784840389528151610890858261082b565b945061089b8361083f565b925060208a01995050600181019050610877565b50829750879550505050505092915050565b600060208201905081810360008301526108db818461084c565b905092915050565b7f4e487b7100000000000000000000000000000000000000000000000000000000600052602260045260246000fd5b6000600282049050600182168061092a57607f821691505b60208210810361093d5761093c6108e3565b5b50919050565b60008190508160005260206000209050919050565b60006020601f8301049050919050565b600082821b905092915050565b6000600883026109a57fffffffffffffffffffffffffffffffffffffffffffffffffffffffffffffffff82610968565b6109af8683610968565b95508019841693508086168417925050509392505050565b6000819050919050565b60006109ec6109e76109e284610734565b6109c7565b610734565b9050919050565b6000819050919050565b610a06836109d1565b610a1a610a12826109f3565b848454610975565b825550505050565b600090565b610a2f610a22565b610a3a8184846109fd565b505050565b5b81811015610a5e57610a53600082610a27565b600181019050610a40565b5050565b601f821115610aa357610a7481610943565b610a7d84610958565b81016020851015610a8c578190505b610aa0610a9885610958565b830182610a3f565b50505b505050565b600082821c905092915050565b6000610ac660001984600802610aa8565b1980831691505092915050565b6000610adf8383610ab5565b9150826002028217905092915050565b610af88261074d565b67ffffffffffffffff811115610b1157610b10610549565b5b610b1b8254610912565b610b26828285610a62565b600060209050601f831160018114610b595760008415610b47578287015190505b610b518582610ad3565b865550610bb9565b601f198416610b6786610943565b60005b82811015610b8f57848901518255600182019150602085019450602081019050610b6a565b86831015610bac5784890151610ba8601f891682610ab5565b8355505b6001600288020188555050505b505050505050565b600073ffffffffffffffffffffffffffffffffffffffff82169050919050565b6000610bec82610bc1565b9050919050565b610bfc81610be1565b82525050565b610c0b81610734565b82525050565b600082825260208201905092915050565b6000610c2d8261074d565b610c378185610c11565b9350610c47818560208601610769565b610c5081610538565b840191505092915050565b6000606082019050610c706000830186610bf3565b610c7d6020830185610c02565b8181036040830152610c8f8184610c22565b9050949350505050565b7f4e487b7100000000000000000000000000000000000000000000000000000000600052603260045260246000fd5b7f4e487b7100000000000000000000000000000000000000000000000000000000600052601160045260246000fd5b6000610d0282610734565b91507fffffffffffffffffffffffffffffffffffffffffffffffffffffffffffffffff8203610d3457610d33610cc8565b5b60018201905091905056fea2646970667358221220da2dd8456268fb391dd2e9cf800b21f98dbf922c7048a4a8ab311369094a57f864736f6c63430008180033",
  "linkReferences": {},
  "deployedLinkReferences": {}
}